
:10000000009000205D4B0000D74C0000D74C000052
:10001000D74C0000D74C0000D74C0000D74C000054
:10002000D74C0000D74C0000D74C0000FF3B00002D
:10003000D74C0000D74C000091390000FD4500006E
:10004000D74C0000D74C0000D74C0000D74C000024
:10005000D74C0000D74C0000D74C0000D74C000014
:10006000D74C0000D74C0000D74C0000D74C000004
:10007000D74C0000D74C0000D74C0000D74C0000F4
:0C008000D74C0000D74C0000D74C00000B
:10009000F0B595B0002A00D17CE10E4607461093DA
:1000A00011A810300B900024234609942546505D7A
:1000B000002800D168E1252807D0022E03D3761E40
:1000C000791C38700F466D1CF1E70D935219911C85
:1000D000507803462D3B5C425C410F942D2802D1A1
:1000E000D21C087800E00A46302802D1531C11784F
:1000F00001E0014613462A290AD1109910C910912E
:100100005A1C1978002C11D5644201230F930DE07D
:1001100000240A46303A092A07D80A2262435418B2
:10012000303C5A1C19781346F3E71A460923DB437F
:100130002E290A970C9407930AD111782A29109B2B
:100140000AD180CBF9178F43941C5178224612E0D4
:100150001F460937109B0FE0521C00270C46303C0D
:10016000092C07D80A247C436718303F541C1178A7
:100170002246F3E7109B0C9C3028204600D000203C
:1001800006901093202308460E9318436C2803D141
:10019000501C0890117800E00892079B08466338CD
:1001A000152800D9A3E00A24784400794000874448
:1001B000360A9E3D9E9E0A9E9E9E9E9E52149E9E26
:1001C000229E539E9E500698874200DC0746109858
:1001D00002C810900B983A4648E0109802C8109058
:1001E000082210230B9F384602F084F9441E402059
:1001F00020703B1B3FE0109901C910910028684C0A
:1002000000D00446204604F0F8FC034687423946F5
:1002100000DB19467A1C0D982ED00B462CE0109965
:1002200001C9109111AC2070012324E01099C91D5F
:10023000072081430F6810914968002238460791D2
:100240000592134602F02EFE0490002854D1079C1C
:1002500056E0102400E008240698874200DC074698
:10026000109802C810900B983A46234602F042F9C3
:1002700004460B98031B0D9842190C980D93C11A54
:100280000F98002802D00A9F0E9D0DE00A9F0E9D38
:10029000012908DB022E03D3761E7B1C3D701F460E
:1002A000521C491EF4E7491E0D9B002B0BD05B1E10
:1002B000641C022EF9D3651E2D78761E781C3D70C5
:1002C0000E9D0746F1E70D9883180F980028099CAA
:1002D000089A00D1EAE6012900DAE7E6022E03D304
:1002E000761E781C3D7007465B1C491EF3E7022E04
:1002F0000D9B40D20A9F42E00120C407079844406A
:100300003846214603F09CF9039003F053FF024660
:100310000B463846214600F04FF9059A1F4B01F075
:1003200099F903F057FB014604220A2301970B9F1A
:100330003846029302F0DEF8441E2E202070069804
:10034000C71B01980799059A134602F0ABFD0028D8
:1003500000D07F1E3A1920460399029B02F0CAF88A
:1003600004460498002802D0641E2D2020701098A6
:10037000083010907DE7761E0A9A571C1170099C70
:100380005819431C089A91E65819002F03D00021F0
:10039000397000E0002015B0F0BDC0460088C340B1
:1003A000944E0000F0B589B00F26076807904068AA
:1003B00004900068046C446461050A0F0697059474
:1003C000039644D03A6C002A41D0002917D5386DE5
:1003D000796D411A079803F0D1FF0498006881698C
:1003E000C90604D4016808AA11700899F7E73968AA
:1003F000491C3960B97B002901D10121B973012160
:100400003A46CF0745683540566C2E4003D03046FB
:1004100002F084FE00E020203946C140314008D07F
:100420000698046C002C04D006980268836C079828
:10043000A047002D039E03D0284602F06FFE00E087
:100440002020059CC7402F407842069FB86381203A
:100450008001044250D0079860C829466431029157
:10046000083802F07FFC402727401DD0E87C002898
:1004700014D10CE0296F00290DD00068A96EAA6F75
:100480008854A86F401CA867286F401E28673068F2
:100490008169C906EED5E87C002805D0286D696D14
:1004A000411A079803F06AFF029A10780028039E09
:1004B0001DD0287902281AD0002F02D0A97901294D
:1004C00002D0296F002912D1002414702C67A96E64
:1004D000AC66012807D1966EAA6FAB6C00940798A2
:1004E000B047039E03E07C35284604F02DF80798BA
:1004F00001F06CFA069F059CF501E0042DD5F8206B
:100500003858002829D0079E3768706803903C4609
:10051000E834304602F07AFA304601F02BFB787965
:1005200001280ED1E06800280BD12078002808D0DF
:1005300000202070A66E61686269BB6C009007980D
:10054000B04720690028069F059C06D103980068E3
:10055000816B2A4680320A43826380352C4229D03F
:100560000498006881690907FCD4016B01263502F3
:10057000A9430163397A002912D00020387244203F
:10058000385C800607D53C6C002C04D0BB6C202165
:1005900000220798A047012003F02CFC0498006873
:1005A000816BF202914381637879002802D1781936
:1005B00003F0CAFF09B0F0BDFCB40124E4076340B6
:1005C00002E0FCB40124E40708B41D03ED08D60DD5
:1005D000354356025F007F0D06D12C00344300D016
:1005E000AEE001B0FCBC7047A408254307242402F8
:1005F000FF34A74205D10020190D090501B0FCBC4C
:100600007047002B03D50024A61BAC4125000B032B
:10061000DB08C20D134342024800400D07D11C0005
:10062000144300D08CE00EBC1000F0BC70470124D5
:100630006407234307242402FF34A04205D100208D
:10064000090D090501B0FCBC7047002903D5002441
:10065000A21A9C412300C11B08D51C002B002500B9
:100660001400320026000024611A3800362925D5EE
:1006700002B4393949420C00203C03D22F008F408C
:10068000374301E03700A740002F01D040210E433F
:1006900002BC20290BD500290ED04C42203420B4B6
:1006A000A5402C0020BC0D41CE40361904E00029A5
:1006B0002E000D4120390E4192196B411C0014434C
:1006C0003ED00024002B04D5012400218A1A994130
:1006D0000B00401E52005B41FBD501218902150031
:1006E0000D400CD0521800277B4101D3401C0BE079
:1006F0000721C90115000D4001D189008A43072156
:1007000009028A4352005B41801C19DD072109025E
:10071000FF31884209D30EBC0020C90F0902FF3106
:10072000C900C91D0905F0BC7047190B000501433C
:10073000E40721431805120B104301B0FCBC7047BD
:100740000021002001B0FCBC70477047F0B587B0B5
:100750000E4657490978002481421BD9C0005549EB
:100760000F18002E00D1544E0D58796830780128AA
:1007700002D1706800280DD07078012802D1B068CD
:10078000002807D0039103F0A9FEE979002905D0DC
:1007900004F012F82746384607B0F0BD2946E83184
:1007A00001912946643100912C4634340121029193
:1007B000E97104F001F80020E88168742860A860FD
:1007C0003188A980317DA9717168009B9966B168F3
:1007D000019A9166F168296432696A64B2692A6390
:1007E000B28B2280B27FA270326AAA642A46EC32AF
:1007F000A863E8631870A866E86628676867EC2352
:10080000E85050609060D060019A1070002902D1C9
:100810002A49296468645020039C205A02F052FC43
:10082000112002F04FFC28464C30E168226904F0A8
:10083000ACF92846D0306169A26904F0A6F92068B5
:1008400003F0F2FF384600F023FA384602F0F6FFD4
:100850002B20C00028181A4A02993B4603F066FD77
:100860005B2080002818174A04213B4603F05EFDF8
:1008700004AE304604F042F90497207A05902846E9
:1008800014306168104A334601F028FF28467C3056
:100890000026314603F0C6FB0298000228183146B4
:1008A00003F0C0FB2068616B0860216B486072E751
:1008B000DE4E00007C4E0000704D0000F32E000064
:1008C000113B0000AD480000A5030000F0B589B061
:1008D0001C461746089105684268002B01D000218C
:1008E00021600E21CE43002F13D00692079004F012
:1008F000B6F9059003F0F2FDE97900290BD00494D4
:100900002C46E8342178002908D003F055FFB61DA5
:1009100084E0761D82E003F04FFF7FE00390012228
:10092000227008986060A760E76000216161E96358
:100930006973E9720192100228180290009103F085
:10094000C9F8069804F02FF90598002802D16879B3
:10095000002826D0079801F00DF9039803F02CFF2A
:10096000687900280CD10E99029803F0B3F800289A
:1009700001D001986873079802F048F800202070B1
:100980000499002901D060690860E87A002803D042
:100990000020E872761C41E0687B00283DD10646C5
:1009A0003CE0039803F008FF07980568446844207A
:1009B0000690285CC00605D52E6CAB6C1021002279
:1009C0000798B0472E46E836002F0BD0706908997B
:1009D0000A182046394603F0B5FE7169091871619D
:1009E0003F1AF1E7204604F0E5F80028FAD0204647
:1009F00004F0D2F80698285C800605D52C6CAB6C08
:100A0000202100220798A047009A327004990029FB
:100A100001D070690860164600E0B61C304609B087
:100A2000F0BD704786B04F4F4D48006A0668002EF3
:100A300002D0C068046800E00024786A401C786234
:100A400002A802F03FFF05460298002802D000F0FD
:100A50002BFC7DE0002E03D0AC4211D9002204E033
:100A60003F48406A006842424241786B611B02F095
:100A70006DFF00F019FC00286AD103F03BFF67E02E
:100A800000F012FC2046294602F0E6FF60E0029EDC
:100A9000002E2ED4049C6069002802D0201D03F093
:100AA00021FE01A802F00EFF0546701E08284FD84F
:100AB000784400794000874404042F213F04042F28
:100AC00021002820215C01220A432254039EA069B0
:100AD000811920462A46334603F004F9002837D00E
:100AE0002046283001784A071CD4FA2211400170B0
:100AF0001EE0039A04980599904729E02820215C7C
:100B000001220A4322540398A061411920462A4633
:100B10002B4603F0E7F81BE02820215CFE220A4068
:100B2000225415E0A069811920462A4603F03AFCB8
:100B3000216A204688470BE02820205C810703D4E7
:100B4000204602F0E1FE03E02834FE210840207038
:100B5000786B02A9002200F0EFFD002897D163E72F
:100B6000FC000020D4010020F0B585B00446074603
:100B70004437049124300090012500200190434E19
:100B800003F0ACFEA06B002850D10498002862D07E
:100B9000E80703D0306B02907069039003F05EFFAA
:100BA000706A401C706203F099FE3878FF2801D10A
:100BB000002038707878FF2801D10020787003F089
:100BC0004DFF02A804A902F015FD00280AD004F088
:100BD00091F800F069FB204603F0C4FE00250028D0
:100BE000CED03AE0204603F0BDFE002805D104F047
:100BF00081F800F059FB0025C2E72068002807D1E2
:100C000003F06CFEA06801F02FFB019003F026FFBB
:100C10000499009803F016FE04F06CF800F044FB11
:100C200000250028ACD103F065FEA9E7401EA063B3
:100C30002068002802D103F045FEA060206901254C
:100C400000281CD01034204601F05AF8002816D095
:100C500003F050FE13E0002511E00198002813D0A6
:100C600003F03CFE0098006800250028294603D0C8
:100C7000206B00680A21091AA06801F037FF03F011
:100C8000EDFE284605B0F0BD0025FAE7D4010020AE
:100C9000FEB530C82746343728465230009001A8A8
:100CA00003F01CFF28680299226B3423E35C3B4C61
:100CB000E35C7C783A4E345D1C43BB78394EF35C80
:100CC000234303F0E6FB2868374941641921416357
:100CD000E969012915D1AA6AFF3A511E8A410146E4
:100CE0003031036B2C4C2340D2031A430263EA6A6F
:100CF000FF2A0CD00A6801239B0313430B60009E5C
:100D00000BE001463031026B234B1A400263009E18
:100D10000A6801239B039A430A603178022906D0AE
:100D200001290AD1016B02220A43026305E0016B2B
:100D300006220A43026371780162C16A10220A43E3
:100D4000C262016B01220A4302633179002903D098
:100D5000016B40220A430263E96B00291AD0A96B98
:100D6000002917D0012103F008FEE86B0F49086045
:100D70000F4908600224214603F094FCA86B214629
:100D800003F090FCE86DF17803F0FAFCA86DB178FF
:100D900003F0F6FCFEBDC046FF7FFFFFCC4E000017
:100DA0004A4E0000A24E0000F23700002C600240C4
:100DB00004650240F0B587B0144605910546076802
:100DC0004168002B01D0002018600F20C643002C82
:100DD00012D00491039303F081FB0146F8790028B7
:100DE0000CD002953D46E835287800280BD00846FF
:100DF00003F0E2FCF61D5EE0B61D5CE0084603F081
:100E0000DBFC761C57E0019601202870059868608D
:100E1000AC60EC6000206861F86378730090F87251
:100E200004980C4603F0BFFE204603F0C5FCD03703
:100E300003F054FB044606A9384602F0F5FF0646C7
:100E4000E868864200D3064606986969059A5118F3
:100E5000324603F01FFF3846314602F0B3FEE86821
:100E6000801BE860686980196861204603F0A4FC73
:100E7000012E02DBE8680028DAD103F02FFB0446DC
:100E8000686900280CD0049803F08DFE029800F0E9
:100E900071FE69690029019E00D00026039802E0D6
:100EA000019E03980099002800D00160002028705E
:100EB000204603F081FC304607B0F0BDF8B504468B
:100EC00003F00CFD3A4EF068401CF060394A10689F
:100ED000002809D03069002844D11068C06AE16A4E
:100EE00088423FD814603DE01460F068012839D191
:100EF0000021C843304AC8290AD053181F46083772
:100F00005F609860DF601F61002353501431F2E787
:100F10002A490A4608324A608860CA600A6100228B
:100F20000A600F461C370B4614338F61C8610F628D
:100F30004F624A61224F3D466035FD6538667D66E9
:100F4000BD66BA653D4638357D63B863FD633D6473
:100F50003A633D464C35BD64F8643D657D657A6411
:100F60007960BB607068401C70606064E06AB16961
:100F7000884200D9B061142141430F484218536898
:100F8000251DA3609F68E7607D609D606261425897
:100F9000521C425003F062FD3069002807D005481A
:100FA0000068C06AE16A884201D203F0A3FCF8BD80
:100FB000D40100205C030020E02E00206801002006
:100FC000FC000020FEB5364C01200290C303A5684A
:100FD0002561A5612F461F401DD001930298400452
:100FE0002061304801F086FF00262E483146324607
:100FF00003F08CFC2C48E0652C488068002803D066
:1010000080472A48866005E0082002F0D9FE0120CA
:1010100002F0F0FE019B0A262E4019D0206C0299A6
:1010200088432064E06D22490840E065214801685A
:101030000F221203914319430160002F05D120684C
:10104000184202D0012002F0D5FE01F06FFC66616B
:1010500028070DD503F042FA216E154A114021668A
:10106000216E521C0A43226603F0A6FB0820606131
:101070000E4E3169002912D02846884700280ED02C
:1010800000203061029DE5660B48016804220A4396
:101090000260102002F094FE284602F0ABFEFEBD76
:1010A0004410004040310020110003800403002060
:1010B000FFFFFF7F1C1100402C000040FEB5394CA3
:1010C000606A002804D0E06A401CE0620020FEBD97
:1010D0006069401C0290606109D3334841688268AE
:1010E00042608160206B401C206303F075FA206A27
:1010F0000299814201D200204EE000202A4A00904D
:1011000001902A4B51680968002941D05168C9688B
:10111000CF687968029888423CD3391D7E69B868E7
:10112000FA68826050607068884200D172603068EE
:10113000401E3060BE6A002E0ED038461830FD6961
:101140003A6AAA6055607568854200D172600020D5
:10115000B8623068401E3060FE6AA069864200D9DD
:10116000A661142070431A185568BD60AC68FC6015
:101170006160A9607A611958491C19500C480068CF
:10118000C06A864201D901200190074A054CB9E79F
:101190000098C14321620198A16A002997D00120DB
:1011A000FEBDC046D4010020FC000020E02E00203F
:1011B0005C030020FEB503F091F9044602F082FEC4
:1011C00000285FD003F03AFD04250540800726D4AF
:1011D00002F0AEFF002855D001942C4C2C4A2D482B
:1011E000016810680290002920D000954832002341
:1011F000DE43052B18D00846D840C0070CD0106835
:10120000254DED5C029FAF40C01BA04200D90020DD
:10121000E840864200D306465B1C121DE9E7002D1C
:1012200030D103F073FC2DE03446009D1B48826DE5
:101230007D21C90051438C4200D30C46FF21F63179
:101240008C421CD3416A491C4162154DAE68029F15
:10125000E01900F001FE6E600D480068C01B03F04D
:101260003DF802F0E9FF0020A8602868052101434D
:1012700029600C48686000F017F8019C02E0002D1E
:10128000019CCED0204603F097FAFEBDFFFFBFFFC2
:101290000421024044200240BB4E0000D401002043
:1012A00010E000E07FBB0000F8B503F017FB364DFF
:1012B000686A401E6862686A0024002803D003F050
:1012C000CDFB2046F8BDE8680028F8D000212F4A61
:1012D000946D002C3DD0516EC9680F4618378C6A4A
:1012E000CB690E6A9E6073606368BB4200D1666022
:1012F00000238B6223685B1E23600C1D4E698B6884
:10130000CF689F607B607368A34200D177603368C9
:101310005B1E3360CE6AAB699E4200D9AE61142376
:1013200073431B48C718786888602A468568CD6073
:101330006C60154684604F61154AD058401CD050EF
:1013400014480068C06A8642104AC1D30120A862CE
:10135000BEE7002901D003F03FF9EC6A002C09D068
:10136000FFF7ACFE002801D00120A862641EF7D16F
:101370000020E862A86A002803D003F0BBFA012429
:101380009DE700249BE7C046D4010020FC0000201C
:10139000E02E00205C030020F8B52C4801780029DD
:1013A00051D1012606702A494A68531E14469C41B1
:1013B000447089684260816026482030264A13259F
:1013C00000242946234601F089F941200001032128
:1013D00003F022FCF70338460A302049086028460B
:1013E00003F04BFC1E481F4A2021234601F076F9EA
:1013F0001D48066086601D4806601D48C1681D4A7C
:101400000A40C26001680F2212039143C9190160AA
:1014100002F08CFD01467D20800002F0FDFA0246BC
:10142000154D16492846234602F054F901F07EFA7C
:10143000284601F0C9FB094AD06CF1070143D16489
:101440000F48102101600020F8BDC04604030020B1
:10145000704E0000A8020020C50F00005810004088
:10146000E0310020314C0000582000406020024054
:101470001C11004000F0FFFF403100201D3700002C
:101480000058004088B000F0C9F903F015F81720A3
:101490000125294603F0A6FA07AC204603F00FFC0D
:1014A00003202070A807214601F03EFF002812D03B
:1014B0000446AD06264B002105910A4603F07EFA4C
:1014C000062002F0A3FE204603F0D2FA069528403B
:1014D00002D0214901E0FEE71E490491002801D015
:1014E0001F4800E01D480390172003F09BFB0546B2
:1014F00047424741401E2946814100262046324648
:1015000003F03CFB012D049D00D0039D0095204677
:1015100039463246134B03F051FA204603F0A8FA3D
:10152000069908420AD00598461C00900195FF21B3
:10153000002220460C4B03F041FA0596012002F0F0
:1015400065FE172003F0D2FA162003F0CFFACBE79E
:101550002E4E0000ED4D00003C4E0000D04E00002D
:101560001F4E00008C4E0000104E0000F0B587B0FA
:1015700003930191044606464436069210300290C9
:10158000012503F0ABF9A06BE16B884242D30398CD
:1015900002283FD00698002850D0E80704D02C49F4
:1015A000086B04904869059003F058FA2849486A86
:1015B000401C486203F092F93078FF2801D10020E6
:1015C00030707078FF2801D10020707003F046FA67
:1015D00004A806A902F00EF8002832D103F07EF923
:1015E000A56BE76B03F03AFABD420DD1069902985C
:1015F00003F028F903F07EFBFFF756FE00250028D4
:10160000BFD103F077F9BCE703F074FBFFF74CFEA2
:101610000025B6E720460199039A01F0D7F8616AE0
:10162000002903D02434204600F06AFB002801D0B2
:1016300003F060F903F012FA012007E003F00EFA5C
:1016400003E003F057FBFFF72FFE002007B0F0BDCB
:10165000D4010020FCB50C005C40E40FE40710B49A
:10166000DD02540D2543D6025F007F0D60D00124BA
:10167000E407254307242402FF34A74250D0CB02BD
:10168000440D2343C2024800400D51D00124E40719
:10169000234307242402FF34A04241D0C01901B4DF
:1016A0001800290002F0ACFA0F0001B41800310054
:1016B00002F0A6FA03000C001000310002F0A0FABC
:1016C00006001000290002F09BFA0500761800229F
:1016D00002BC01BC55415141A419554151418024DE
:1016E000A4005B195141FF18514100D564003F1916
:1016F000514102D47F00494100E0401C03242402F0
:10170000FF34001B14DD2419A04209D80305F80A90
:101710004C0520434900090B194310BC2143FCBD73
:101720000020FF21C900C91D090510BC2143FCBDD3
:101730000021002001B0FCBDF0B585B00091044649
:1017400005464435049224300190012703F0C6F881
:10175000A66B002E47D10498002857D0F80704D074
:101760002D49086B02904869039003F077F92A49E4
:10177000486A401C486203F0B1F82878FF2801D17C
:10178000002028706878FF2801D10020687003F0DD
:1017900065F902A804A901F02DFF00280AD003F082
:1017A000A9FAFFF781FD204603F0DCF800270028A6
:1017B000CCD02EE0204603F0D5F800280DD00499B7
:1017C000019803F03FF803F095FAFFF76DFD00274D
:1017D0000028BBD103F08EF8B8E703F08BFAFFF7CF
:1017E00063FD0027B2E72046009902F019FF701E42
:1017F000A06320690127002809D01034204600F09A
:101800007FFA002803D003F075F800E0002703F00A
:1018100025F9384605B0F0BDD4010020F0B587B0F9
:1018200002F05CFE29490A78012A02D102F0C4FFC5
:1018300049E0012203920A7002F0BEFF0024204614
:1018400001F040FC04AD284603F058F9214EF06841
:1018500005902148214A15212B4600F03FFF2048E2
:101860000078204909788200204F02940191884233
:1018700024D833689B58002B1DD49D0710D4039D9A
:1018800085402C43C5B2FF2D12D01E46039F3E401B
:101890000F4F7D19BC27EE55144F0E4E019907E0EE
:1018A0005D0705D5039D8540029F2F4302970F4F8B
:1018B0000D4D2B40D351401C121DD8E70C4804603D
:1018C00003480299016007B0F0BDC04647030020FD
:1018D00044300240F04D0000C43100203D3C000087
:1018E000DC4E0000DD4E0000F8FFFF7F00310040BD
:1018F00000350240F0B585B0049316460446002931
:1019000001D00F4600E02D4F342000F0C9F80C2321
:1019100000284FD0054603943869411E02468A418B
:101920002A740024EC60AC606E610499A961EC61DA
:101930002C6239686960AC62EC622C63002808D1C3
:101940000120002103221E4601F098FCA860002817
:101950002CD01B480669002E03D0416A416A491CFD
:101960004162388982083868009001951548164907
:101970002B4601F05BFA012806D12868294602F0BF
:10198000C1FE00232C4608E0A868002801D003F01F
:101990008AF8284601F0B8FF0C2303980460002E53
:1019A00008D01C46FFF780FC234603E0284601F0E0
:1019B000ABFF3346184605B0F0BDC046B44D00003D
:1019C000D4010020DF4B0000D84E0000FEB50768B0
:1019D000797A00295CD04568696B019101F0C2F900
:1019E000786F00281ED03C464C34204603F08CF91A
:1019F0003E6FB0421CD23879022819D0B86E002848
:101A000046D0204603F080F9301A7867B86EB96F77
:101A10004618204603F078F9301802900020F87438
:101A2000786F0DE0B86E002802D0386F0028DAD148
:101A300038464C3002A902F0F7F978670121F974B1
:101A4000002825D00124A1020022BA73884201D9BE
:101A50007967084602990918491E019A51600D4993
:101A6000916000010C494018084091680143916061
:101A7000E86B214602F026FEE86B084908602868FA
:101A8000214602F085FF2868816B62030A43826366
:101A9000FEBDC0460180000CF03F000028600240FF
:101AA000F8B5314E716A491C7162F16B002918D189
:101AB0002E490722D3434A070A4601D0CA1D1A40BD
:101AC0002B4C002524C4012464030919194008394A
:101AD000F1630D604D608B1A5360F16B116073649C
:101AE0003364002400283BD0072203461340113BF7
:101AF000834235D390431030012831DB336C984258
:101B00002ED800941A4E34682546374662688242C1
:101B100003D22C68002C2E46F6D18D42009C1FD09B
:101B20003968009129683960141A112C0E4E07D3B8
:101B300029184C606860084601F0A2FE6A68336CA0
:101B4000981A3064716C884200D27064009C08342A
:101B50000120C0070243002005C5B06C401CB064E2
:101B6000FFF7A2FB2046F8BDD4010020200400208E
:101B700024320020FEB5054604682646EC36F0689F
:101B8000002800D0FEBD6F686079022806D120468B
:101B9000D03002A902F06AFCF06005E0B068F060A5
:101BA00031683269891802910028EBD039688A6B54
:101BB00001230193DB029A438A634421615CC906D5
:101BC0000DD5226C002A0AD0217A002907D1A36CF6
:101BD0001021009200222846009DA847F068019D30
:101BE000A902884201D9F1600846396B029A12189D
:101BF000521E0A60104A8A600001104A8018104084
:101C00008A6802438A60B86B294602F05BFDB86BB4
:101C10000B4908603868022102F0BAFE3868816B0F
:101C20002A030A438263207A0028ABD1284602F0B7
:101C300095FA2572FEBDC046014000C0F03F00008D
:101C400028600240F0B587B0069305920C464668BE
:101C500080688168C768058A706801F03BFF0028CA
:101C60004AD12946059D039604970C9FFF2C2046D8
:101C700021D0891E0446431C681C00901F4A049D05
:101C80002846059102F063FE064603988068002806
:101C90000FD0A91942780292C378857800783A4625
:101CA000049FB85517468D70049DCB7002984870FC
:101CB000361D059903E00446891E0026049DA819D7
:101CC000891B069A3B4602F0E0FF80192918FF2C79
:101CD00004D038224A701B220A7003E00D220A70D9
:101CE0000A224A70039C821C20680023294602F0C5
:101CF00068FF606802F028FC07B0F0BD004E0000ED
:101D0000F8B5C068C56828461830A96AEB692A6A20
:101D10009A6053604B68834200D14A600024AC62F1
:101D20000A68521E0A601F4F796A00290DD01E49A9
:101D30000A465832CB6DEB619E682E6270609860E7
:101D4000AA62886D401C886522E0281D6969AB681D
:101D5000EA689A6053604B68834200D14A600A681F
:101D6000521E0A60E96ABA69914200D9B961142227
:101D70004A430E498B185F68AF60BE68EE607060C2
:101D8000B860084F6B618858401C885002F024FCF2
:101D9000E86A07490968C96A884201D90124BC6216
:101DA0002046F8BDD4010020FC000020E02E0020D9
:101DB0005C030020F8B5014600040DD40122C805DB
:101DC0000FD40020890306D51E498B6E0A2B30D113
:101DD000204848641046F8BD184802F093FA0020E5
:101DE000F8BD174B1749986800281CD4174F184C9A
:101DF000256820607E1B01DC134EAE19952E12DC87
:101E00003E1A01D8104E8619952E0CDC401BC517C2
:101E10006840401B952806D8081F520402600A60DB
:101E200000202060F8BD1402002018601A600C60C9
:101E3000F8BD52040A238B660A60F8BD0202000056
:101E40000012004058100040A01CE9FF60E316009B
:101E50005803002080841E80F0B589B00190214F86
:101E6000214A224801680125A943016010680390B6
:101E7000386C029004A81E49142202F00BFF1D4882
:101E8000042102F0C9FE2026304602F0F2FE386836
:101E9000194CA169019A101AB938C0084018A062FB
:101EA00000F07CFD0190E56065652068304602F039
:101EB000E0FE1B210F4802F0AFFEF86B0128FCD1B9
:101EC0000B4804A9142202F0E5FE02983864064883
:101ED0000399016001F01CFB042001F071FF0198DF
:101EE00009B0F0BD042102404420024010E000E0AF
:101EF0004C2102404404000000200040FEB505468D
:101F0000066802F0EBFA0446F07A002814D0307A22
:101F100000280DD0686802F04DFE0028FAD06868ED
:101F200002F03AFE002030720121284602F09CFEA9
:101F3000204602F041FCFEBD3746E8370120029002
:101F4000F072284600F062FD7179022906D17969A4
:101F5000081A78613046D03002F082FC38780028C8
:101F6000D5D07079002805D102980002301802F00F
:101F7000EBFA70790128CAD100203870F860B86E89
:101F8000029079687A69B36C0D20C04300902846AE
:101F9000029FB847BBE7FEE7FEB516460C4645680C
:101FA00087686868B96801F095FD002800D0FEBD1B
:101FB0000295A64200D82646F868398A641C002299
:101FC00001920092164A234602F0C1FC31460646B1
:101FD0008D1CF8688019AC4212D20622114902F019
:101FE00059FEB61D388A801B072807D8029800685A
:101FF000F9683246019E334602F0E3FD641CE8E7CF
:10200000382141701B210170B21C029C2068F968C4
:10201000002302F0D6FD606802F096FAFEBDC046CD
:10202000004E00009B4E0000F8B5044660C83068C2
:10203000816B204A0A4082632046FFF75FFF2046FB
:1020400001F09CF9204601F009FF306802F0ECFB3A
:1020500000272F726468242002F041FE202002F045
:102060003EFEE069012805D1282002F038FE2C2030
:1020700002F035FE2846143002F003FD0120000274
:10208000281800F0DEFB28467C3000F0DAFB2B201D
:10209000C000281802F042FD5B208000281802F0E2
:1020A0003DFD5020305A00F0E1FF112000F0DEFF2E
:1020B000EF71F8BD0DC8FFFFF8B5044602F00EFC45
:1020C000002C01D11D480468251D284602F00AFB9A
:1020D000A06A002803D02046183002F003FB184FF6
:1020E0007868401C7860154E3068844208D0F868E3
:1020F000401EF860204602F089FB02F06DFA0AE00B
:1021000010483030294602F04EFCB868401CB860D8
:10211000204602F07BFB02F0A1FC3068844202D032
:10212000204602F01EFB3869002802D03068844245
:1021300000D0F8BD02F0DEFBF8BDC0465C03002015
:10214000D4010020FC00002070B5044602F0C6FB5C
:10215000002C01D11D480468251D284602F0C2FA52
:10216000A06A002803D02046183002F0BBFA184EAF
:1021700030464430294602F016FC6020205C0128DD
:1021800003D1204660300021017002F067FC114D40
:102190002869002805D002F0A1FB02F01DFA02F028
:1021A0005DFC0A4801688C4200D070BD2969002995
:1021B00002D002F09FFB70BD716CEA68914202D1BF
:1021C0000021016070BD00F017F970BD5C030020B4
:1021D000FC000020D4010020F8B50026002835D0EE
:1021E0000446C06B002831D00D46226C00263146D3
:1021F000334602F0CDF9481E814127D126464436A8
:1022000002F06CFB2168E06B226C431E50430F18F8
:102210000020A0635343CA186160A760E260FF21F9
:1022200031707170002D13D021461831C2436161A5
:10223000A261E1612162206121462C31A162E2624A
:1022400021636163606202F009FC01263046F8BD3B
:10225000103420680028F6D02046FFF751FD0028F2
:10226000F1D002F047FBEEE7F8B500281ED0044697
:10227000C06A1D4F3968C96A884212D2A169002913
:1022800004D43968C96A0A22511AA1616169142605
:102290007043164A101881420AD03868C06AE0625A
:1022A0001FE0E06C3968C96A88421AD30020F8BD83
:1022B000251D284602F016FA3868C06AE0620C490B
:1022C0008A69904200D988614643084B9819416851
:1022D000A1608A68E26055608D6060619859401C19
:1022E00098510120F8BDC0465C030020E02E00207C
:1022F000D4010020B0B5002928D00C46054640087E
:1023000019490140681A1949820808400A40801892
:10231000010940181649014016484843000E02289A
:1023200014D2082D00D8082508346019FFF7B8FB2F
:1023300000280FD001466A1E28180A4210D06A42AF
:102340001040083888420CD228180AE001F006F93B
:10235000162102E001F002F90C2101600020B0BD5D
:10236000083812C00030B0BD55555555333333339E
:102370000F0F0F0F01010101F8B50D4604461B4870
:1023800047691B4E3068001D02F0ACF9601C16D185
:10239000002D14D0174801464431826C33689A608E
:1023A00093683468E3603468241D5C6033681B1DE7
:1023B000936032685161416C491C4164F8BD3C191D
:1023C000306844600B4805D380683168091D01F00E
:1023D00040FEF8BD40683168091D01F03AFE03492E
:1023E000086A844200D20C62F8BDC046D4010020C5
:1023F0005C030020FC000020B0B51B4C606A002884
:1024000002D00120A062B0BD18480021A162184D81
:102410002968096B0A68824208D14A68824205D15C
:102420008A68824202D1C968814204D0286829683A
:10243000343101F0F0FAA069142141430D4A5118DA
:10244000401C0A681439401E002AFAD08A69526872
:102450008A610B461C33934201D152688A61D1686C
:102460002960A061B0BDC046D4010020A5A5A5A5E6
:102470005C030020E02E0020F8B516480078002804
:1024800027D115480768154D01262E600024846069
:10249000EE6013481349224602F04EFA12481B21FF
:1024A00002F0BAFB6E60114D2846283002F0AEFAF9
:1024B000AF610F483818E8616C70AC700548067061
:1024C00002F00CF80446E86902F0CCF8204602F06D
:1024D00073F9F8BD03030020042102405420024098
:1024E000E0310020ED25000044040000FC00002045
:1024F000FFFFBFFFF0B585B01D460F460146012026
:102500000026002B02D56D42002F27D403900492A1
:10251000019602914C1E3846294601F07DFA01468B
:102520006943791A114A515CA155761EBD4207468E
:10253000F1D902988019401E7142049B994204DA35
:1025400030220270491C401EF8E70399002901D08F
:10255000401C01E00199017005B0F0BD7F42521EA0
:1025600004922D20019000200390D2E7DC4D000062
:10257000F8B5451C00780023082B32D02F78C2070D
:102580000CD16A780F241440E41C122C0BD10224C5
:102590002E57F4B2002E08D4EE1C0EE06D1C4A1C1F
:1025A0000F7011461AE0AE1C08E02E1DED78009564
:1025B0007F252C40009DED012C1912343D0112099C
:1025C0005219094DAA420ED0D243002C05D08D5C81
:1025D0004F1C0D70641E3946F7E7354640085B1CFA
:1025E000CAE72846C5E7F8BDFF0F0000F8B5012689
:1025F0001848066001F072FF17490968174A5670BB
:1026000000259570D4690F1B02F0D6F8AF4207D3AE
:102610002C197F1B3046214600F0CCFC0546F5E71F
:1026200001F05CFF06460D4FB878012804D1002068
:10263000214600F0BFFC05460948854200D3054607
:10264000281902F00FF800207870BC61304602F0C3
:10265000B3F8F8BD5420024004210240FC000020E1
:10266000FFFFBFFFFEB500291ED403460020FF2B4D
:102670001CD01546154A164E02240C4002940CD16B
:1026800001240A462240F718019700959C25019FD6
:102690007A550E4A009D9C4014609C0001279F4083
:1026A0004B0705D4103605E00020FEBDC043FEBD3B
:1026B000376008363760074B19402943064BE15015
:1026C0000299002900D01761FEBDC04610350240B6
:1026D00064300240F8FFFF7F003100407FB50446C0
:1026E0000020002C2DD01E460D46002B0AD071680C
:1026F000CBB2FF2B0DD0144B1B6DAB420BD0C029BE
:102700001FD008E000200190C043029001AE0120DC
:10271000307280207060A8000C490C5062603068F4
:10272000A06025600A49284601F0D6FC3179284688
:1027300000F0E6FA307A002802D0284601F0BAFD0F
:10274000204604B070BDC046D40100200000002027
:1027500065420000FEB514460D46074602F0A2FA97
:10276000BE6B002E17D00094029044203856019082
:10277000C4B23846294601F053FF701EB863FF2CDF
:102780000BD01148C0680125019A904216D94437F0
:10279000601C387012E0002511E03869012500281E
:1027A0000CD010373846FFF7ABFA0099002905D056
:1027B0000028029803D001250D6000E0029802F085
:1027C00084FA2846FEBDC046D401002070B51546E7
:1027D0000446866B026C002A18D0002D1DD0E068DC
:1027E00002F058FA206CE168091AE160226891420F
:1027F00003D24042A1680818E060A81E414241414E
:10280000701E324682410A40B61A02E02068002853
:1028100011D00020711CA16370BD606802F03AFA0B
:10282000206C616809186160A26800209142F1D3B0
:1028300021686160EEE7A06800F08CFB0021A160D8
:10284000E8E77047FEB502930F46194D0024E143B7
:10285000184E00973740019043422B46BB4101D2AE
:102860000C4623E0084602990E405342B54101D27E
:1028700004461BE0134601990B433E431E43029D51
:10288000009E13D02B46334004D401998B1A334653
:10289000AB4103E00199531A2B46B341044605DBD3
:1028A00051406E400E43701E864134462046FEBDA8
:1028B0000000F07FFFFFFF7FF8B504460546443572
:1028C00002F00CF800956E7825462435164F70B24C
:1028D00001280BDB2868002808D02846FFF710FAEB
:1028E000002801D00120B862761EF0E7FF25009E87
:1028F000757002F0B3F801F0F1FF3678103470B261
:1029000001280BDB2068002808D02046FFF7F8F9E3
:10291000002801D00120B862761EF0E7009805700B
:1029200002F09CF8F8BDC046D401002070B5164DE9
:10293000E86BC0071FD1154C2C66154E316842203C
:102940008847201D28661348A865316806208847F7
:102950004020E860A96D01200143A965A96D81436C
:10296000A96529684906FCD5A96D0B4A0A40AA65E4
:10297000E96B0143E9630124204601F0EFFBE0032A
:10298000E860286170BDC046481000400D0000801E
:102990009400000F00000380FFFFFE7F70B501254B
:1029A000284601F00DFA0446002820D1124E00F00E
:1029B000D9FE002804D001F065FE3068A8433060DD
:1029C000F0690E490840F061706A084070620020AA
:1029D0007062EFF314810A4D296080F3148809496D
:1029E00009688847286880F31488FFF79FFF064826
:1029F00000218170204670BD84100040FFFFFF7FE2
:102A0000343200204C00000F0403002070B504682D
:102A10002646F436716800291FD04568A86B154911
:102A200008602868022101F0A8FFA86B124908601D
:102A30002868816B01221203914381634264286BF1
:102A400002F002F805467068411B6079022806D141
:102A5000D034204601F0CEFA07E0002507E0B06848
:102A60004018B0603068401A30600020706028461E
:102A700070BDC0462C60024004650240FEB5029362
:102A80000E4601900A9C089D206B9700A5223946AE
:102A900002F09EF8206BC019001F072188432064B4
:102AA000002E0CD03421402906D07218343A127806
:102AB0006254491C002AF6D13F2100226254099E2B
:102AC000092D00D30925E56400210A22521B246147
:102AD0006161A2616462A162E5620199029A01F0FA
:102AE00075FC2060002E00D03460FEBDF8B50028D3
:102AF00018D00446C26C8A4200D80A46E06A904266
:102B000010D0216D01290DD1E262A169002902D402
:102B10000A21891AA1616169142670430D4F381882
:102B2000814200D0F8BD251D284601F0DBFDE06A9A
:102B300009498A69904200D988614643B8194168B9
:102B4000A1608A68E26055608D606061B859401C80
:102B5000B851F8BDE02E0020D40100207CB501F072
:102B6000BDFE144C606B002820D11348034630335F
:102B7000024628320021CD43C36205634363836369
:102B800081620346443306463C36036445648364ED
:102B9000C364C1630948026246620091084B203356
:102BA000084A1420102101F0D5F8606301F056FFA7
:102BB0007CBDC046D401002068010020FC0000203C
:102BC0008C000020A02D002070B50546164E01F0A7
:102BD00085FC044615494A783068002A06D0AA6860
:102BE0001018E86001202875887018E08A69831A37
:102BF000CA698969511A8B4206D93068A9680818D0
:102C0000E860012028750AE0A9680B18EB60012331
:102C10002B75101A814202D2E86801F023FD20468C
:102C200001F0CAFD70BDC04604210240FC00002036
:102C3000F0B58BB0009145680190846802AF3846CA
:102C400001F074FF6068089000267E70012001F09A
:102C500081FB6860002818D0207802A9FDF776FD76
:102C60002860002811D000990978491EC9B20229AC
:102C700003D88900064A515800E00021A96005499F
:102C80001222002301F09DFF019E30460BB0F0BDE3
:102C90004C4E000034030020F8B50446164F174D83
:102CA0000E462E400120009464423C46B4411AD3A3
:102CB0001D405442AF4116D31046009C204335437B
:102CC000054311D00020C0431C460C400ED4009C8C
:102CD000A41A0C469C4106DB009850405940014321
:102CE000481E81410846F8BD0020F8BD009C141B19
:102CF0001C468C41F0DAF6E70000F07FFFFFFF7F13
:102D0000FEB50D4604460F20C043102C00D20830FB
:102D10000719102C01D3124800E010480290A007B8
:102D2000C00E0190FF268640204601F033F9009046
:102D3000204601F0ABFA03208743029AD059B043F2
:102D4000C0210D4001998D400543D55100980028C0
:102D500002D0204601F0AEFAFEBDC0461CED00E0F8
:102D600000E400E070B50568696F002926D0466868
:102D7000F06B1349086030680124214601F0FDFD25
:102D8000F06B104908603068816B62039143816386
:102D90004264706B01F058FE696F091AE87C0028E4
:102DA00004D028464C3000F00DFF05E0286F401A93
:102DB0002867A86F4018A8670020686770BDC046E4
:102DC0002C60024004650240F8B50E46074601F04B
:102DD00069FF0446BA6BF86B82420FD24520395620
:102DE000C8B2521CBA63FF280ED00F4AD268012520
:102DF0008A4204D94537401C387000E0002520463F
:102E000001F063FF2846F8BD786A01250028F6D056
:102E100024373846FEF774FF002EF0D00028EED09D
:102E200001253560EBE7C046D4010020F0B587B03E
:102E30001F461546069105900020C4439000FEF7FA
:102E40002FFE002821D0064604976420FEF728FEB6
:102E5000002817D007460D9803900C9C6421384633
:102E600001F0F2FE3E6300940398019002970598EA
:102E700006992A46049BFFF701FE3846FEF71EF826
:102E8000012402E0304600F03FFD204607B0F0BDCF
:102E900010B5FFF701FF002801D0002010BD012070
:102EA00010BDC04610B5FFF7F7FE002801DB00207B
:102EB00010BD012010BDC04610B5FFF7EDFE002883
:102EC00001DD002010BD012010BDC04610B5FFF788
:102ED000B9FC002801DA002010BD012010BDC04659
:102EE00010B5FFF7AFFC002801DC002010BD012069
:102EF00010BD704770B5054601F0F0FA0446002099
:102F00002875114E7078012802D10120B07017E0A9
:102F1000E868F169884213D10C490D68B169691AF2
:102F2000B269801A81420BD20020294600F042F893
:102F30000749884200D30846401901F093FBB56168
:102F4000204601F039FC70BDFC0000200421024045
:102F5000FFFFBFFF70B504460020002C25D0216D77
:102F6000491E2165E26AE36C9A421ED000291CD1F9
:102F7000251D284601F0B6FBE06CE0620A21091A23
:102F8000A1610A498A69904200D9886114214143AC
:102F9000074842185368A3609E68E66075609D60AC
:102FA00062614258521C4250012070BDD401002081
:102FB000E02E0020F8B50C460546144F28370020B7
:102FC0000090C6433F68002F1DD0397D0029F9D0FD
:102FD000002D0ED0F968A1420BD13969F86900299A
:102FE00003D0FA685118F96001E000993975B969A0
:102FF0008847397D0029E5D0F968091BB14200D323
:1030000031460E46DEE73046F8BDC046FC000020E3
:10301000144D154EA868002812D001F05FFCF06B2B
:10302000C468201D01F05EFBE868401EE860A868E7
:10303000401EA86001F012FD204601F092FBE9E776
:1030400000F05AFF0228E5D3686A401C686200F06D
:1030500053FF022802D3A86501F01CFCFEF724F9F7
:10306000D8E7C046D4010020FC00002070B505461A
:1030700001F034FA0446284600F0A4FF401EC6B210
:103080002846314601F03EF8002E04D0204601F0DB
:1030900093FB002070BDFF200102294001200202A5
:1030A000914206D00029F1D1E9B288400449086074
:1030B000ECE7E9B2884080B2002101F08BFBE5E744
:1030C0002000024070B5054601F008FA0446284683
:1030D00000F078FF0646401CC1B2284601F012F805
:1030E000300604D0204601F067FB002070BDFF20B1
:1030F0000102294001200202914206D00029F1D1AB
:10310000E9B2884004490860ECE7E9B2884080B23F
:10311000002101F06DFBE5E714000240010C4A427A
:103120004A41110110224A40D040FF2212020240BF
:1031300053425341DA0008235340D8405118F0223B
:103140000240534253419A0004235340D840891807
:103150000C220240534253415A00022389185A401C
:10316000D0401A1A40080123DB430343581C104087
:1031700008187047F0B587B000F082FF01AC204618
:1031800001F04EFC012500956946204601F052FCF5
:1031900006462046294601F029FD07463743A90285
:1031A000204601F08FFD384300D0FEE7064A06A80E
:1031B00001A90023FEF79EFB002800D0FEE700F0E7
:1031C00031F8002007B0F0BD85140000B0B5054609
:1031D00001F0BCFC0446456201F0B8FC0121C1616C
:1031E000A06A002806D0016802698A624168806886
:1031F0008847F5E7204600F0D7F9207C002806D064
:10320000204600F081FB0020FEF756FFB0BDA0680D
:103210000024214622462346FEF7A8F92046FEF761
:1032200093FFB0BDBFB50F4802900F480190002436
:1032300000940E480E498022234600F019F90D4DE6
:10324000E86100280BD000F0D5FA002807D072B64C
:10325000E0432862012028616C6100F05FFD0648B0
:103260000068BFBD78300020202800201130000009
:10327000B14E0000D4010020D44E0000FEB500285D
:1032800025D014460D460646002739462A463B46B9
:1032900001F07EF9481E81411AD130466843502121
:1032A000C943884214D802945030FEF7F9FB002835
:1032B0000ED004460246503246200021215400948C
:1032C00030462946029B01F0BCF9274600E0002762
:1032D0003846FEBDF8B500F059FD0F4F791C0F4C74
:1032E00006200090A047122528463946A0470D2603
:1032F00030463946A0470C2709493846A047B9202F
:1033000000F066F8074C0098A0472846A0473046D2
:10331000A0473846A047F8BD00040020554C0000E7
:1033200002200460653F0000FEB5044601910029BB
:1033300001D10F4801900F480078029000250E4FF0
:1033400000950298A8420FD03E68AC4203D0F069C5
:103350008047204205D0726838460199904700287E
:1033600004D16D1C0C37ECE70098FEBD3846FEBD5D
:10337000DB4E0000DA4E0000644E0000F8B5044653
:1033800006683079012822D83746643701F0A6F85C
:1033900005463878002817D0002038703067B07A9A
:1033A000002811D10120B07230467C3001F0CCF8F9
:1033B0003079012808D1BF6EB16EB26FB36C0D20A9
:1033C000C04300902046B847284601F0F5F9F8BD03
:1033D00070B5044606200025294601F003FB1220A3
:1033E000002101F0FFFA072D11D80720684021467F
:1033F000C140012631400D2001F0F4FA122031467F
:1034000001F0F0FA082001F051FC6D1CE7E70620FE
:10341000012101F0E7FAAF20800001F047FC70BD08
:10342000B0B50E480178002916D1012505700C4869
:103430000C4A0421002300F079FF11242046FFF7F5
:1034400041FE0948FF21816285640849096841609D
:1034500005602046FFF70AFEB0BDC04656030020B7
:10346000FC310020913E000004600240C84E000084
:10347000F0B587B004460D9D0020002D1ED00E9F94
:10348000002F1BD00E460C980590642138460493FB
:10349000039201F0D9FB3D63612002213954029768
:1034A00006A801900598009020463146039A049B97
:1034B000FFF7E4FA3846FDF701FD069807B0F0BDC6
:1034C00070B50E46002816D0002E19D0054630469D
:1034D00000F0ECFB002817D00446281F0268083AC9
:1034E000B24200D332462046294601F0D3FB28469B
:1034F00001F024FB09E0304600F0D8FB044604E06C
:1035000000F02CF8162101600024204670BD7047A1
:103510000F4802680F490B884988194392070BD45A
:10352000002910D00222826002689207FCD5012097
:10353000814309480160704701220B469343064AC4
:103540001360002900D07047022141617047C046D6
:103550000C0002403832002004000840B0B50F488B
:1035600001690F4D002915D0406A0E4C20680028D3
:1035700000D12068816D00290DD10420FEF790FA5A
:103580000028294607D02168002900D121688865D4
:10359000014600E029460846B0BDC046D4010020DF
:1035A0003C3200205C030020B0B504461048416A5C
:1035B000491C4162E06A002816D00168E162056991
:1035C00006CD083D002A00D01160002900D04A60D5
:1035D00081680968002903D0C068002800D08847A6
:1035E000284600F091F9E5E7FDF75EFEB0BDC04664
:1035F000D4010020F8B50D46064601F06FF90F48DA
:103600004269296800244B1C14D037687368006B2A
:10361000B84201D09A420AD2D21A914207D9881AE6
:1036200028600649086B30604869706002E000203D
:103630002860012401F012FA2046F8BDD4010020D0
:103640000CB54A00520D03231B02FF33D21A13D3C9
:103650001F239A1A12D98E46C9020123DB07194388
:10366000D1400B2A02D21532D04001437346002BC1
:1036700000D5494208000CBD00200CBD0B00012004
:10368000C007002B00D401380CBD70B500280FD046
:103690000A4600242146234600F07AFF0546481ECC
:1036A000814101290AD1FFF759FF8B2101600FE009
:1036B000FFF754FF16210160002409E0284600F0BE
:1036C000F5FA002804D00646294601F0BDFA344632
:1036D000204670BDB0B50446002818D01D46002B0A
:1036E00000D10C4D68682061A260A161A868E0610A
:1036F00000202075FEF7C0FE07482830214600F064
:10370000FFFE2878002802D02046FFF75DFA204609
:10371000B0BDC046584E0000FC000020F8B50F4C6C
:103720000F277D060520460600F0D8FE216D2940B2
:10373000B14210D1E26F39038A430121CB03D21881
:10374000E267074A2260226D2A40B242FBD022681B
:10375000C9078A43226001F02FF8F8BDA01000408D
:1037600012000180B0B5104801687F230B40C90BDF
:10377000FE240C40E11A00229C4200D21146406B0C
:103780000004030F01201029044600D81446032B1F
:10379000054600D815462C406242082B00D310463F
:1037A0000A2900D31046B0BDE810004070B50E469F
:1037B000044600F093FE05466168A068884205D182
:1037C000284600F0F9FF0020C04370BDE068401CAF
:1037D00000F022F920684654E160A068401CA06017
:1037E0006169884200D808466061284600F0E4FF1D
:1037F000A06870BD1FB5FFF7B1F90B4C606B0028D6
:103800000FD00A4802900A4801900520009009480C
:10381000094980220023FFF72BFEA063411E884147
:1038200000E0002004B010BDD4010020DC300020F6
:10383000202A0020250A0000844E0000B0B50F4C5D
:1038400045682420285C2A6C0221FEF70BFF20200B
:10385000285C6A6C2146FEF705FFE86901280BD158
:103860002820285CAA6C2146FEF7FCFE2C20285C50
:10387000EA6C0221FEF7F6FEB0BDC046020004600D
:10388000B0B50E4A114612688242FBD34C680D193E
:103890004368854202D11B194B600846C418944204
:1038A00007D1074CE46BA24203D05468E31843608D
:1038B00012680260814200D00860B0BD243200204E
:1038C000D4010020F8B505460D4E7469B06E8442EF
:1038D0000BD20C4F386A0168002908D0C068006814
:1038E0000021C94300F0B8F8F4E7002003E0796A4A
:1038F0003962786201202860B4662046F8BDC0466F
:10390000D4010020FC00002010B5002803D0011FC6
:103910000A68002A00D410BD08380368002BFAD1C9
:103920000123DB079A430A60074C626A521C6262F9
:103930000968226C51182164FFF7A2FFE06C401C5B
:10394000E064FDF7B1FC10BDD4010020F8B51546C8
:103950000E4604460746443700F0C0FF4420205C72
:10396000FF2801D1002038707878FF2801D100208D
:10397000787001F073F8A06B002805D12046243040
:1039800031462A4600F0E2F82046FEF795FFF8BDE2
:10399000EFF309800E4B1A6820381060F0C04446DF
:1039A0004D4656465F46F0C008B572B6FEF724FD98
:1039B00062B60CBC116808681030F0C8A046A94671
:1039C000B246BB4680F309882038F0C81847C04685
:1039D0005C0300200CB4002916D44A00520D0323C6
:1039E0001B02FF33D21A0FD31F239A1A0FD3C90217
:1039F0000123DB071943D1400B2A02D21532D040F4
:103A0000014308000CBC704700200CBC704700202C
:103A1000401E0CBC7047FEE71CB50A0017D00023FF
:103A20000124E407A04200D20400944201D95200CC
:103A3000FBE790425B41904200D3801A914201D251
:103A40005208F6E719000200080011001CBD010031
:103A50000020FFF75CFD1CBD70B50D4606460D4805
:103A6000006AC068C468201D00F03CFE2820205C6D
:103A7000410705D421462831FA221040087004E09D
:103A8000204631462A4600F08DFC216A20468847B0
:103A900070BDC046FC000020B0B50A4D0120E864AE
:103AA00009490A4A0A6100F059FB00F017FD044673
:103AB0002868000402D4064800F024FC204600F0E8
:103AC0007BFEB0BD4410004004030020B51D000083
:103AD0000202000010B504460C480068C00505D07D
:103AE000002120460A46FEF735FE09E07D20C2008F
:103AF00008461146FFF790FF01462046FDF734F8CF
:103B000001460020012900D0C04310BD04ED00E0B3
:103B1000B0B5012816D154680B4D5220205C002806
:103B200001D0294600E0691C2420205C0022FEF719
:103B300099FDE069012805D12C20205C691C002238
:103B4000FEF790FD0020B0BD0004002070B5436872
:103B50000C4C2568EB619D6826683562266818362E
:103B60006E60256818359D602368986203685B1C49
:103B70000360002A01D00020C14308461146FEF729
:103B8000FBFB70BD5C03002070B50A480A4C844200
:103B90000CD00A4D0A4EB54208D02A686968501CFC
:103BA00012789200A25890470835F4E700BF00BF92
:103BB00070BDC0463C4F0000304F0000544F000025
:103BC000744F0000F8B50F46044600F087FC054628
:103BD0006168A0680E1ABE4200D33E463718A7603F
:103BE000E0688019FFF718FFE1606069874200D83C
:103BF00007466761284600F0DFFD3046F8BD704794
:103C0000FCB4020C0B0CFF242402FF3420402140A2
:103C10000C00444315005D4306005E430F0057430C
:103C2000320C3B0CA818C01832043B040025A11824
:103C30006841C9186841FCBC70470000B0B50B482A
:103C4000046804610A4D002C0FD02046FFF766FA85
:103C50001F21414001208840844368688A008258BF
:103C6000002AF0D0C8B29047EDE7B0BD5430024012
:103C7000F04D00000F2806D00E280BD1094801682E
:103C80000122D20603E007480168012252060A43D6
:103C90000260704710381F2803D801218140024874
:103CA0000160704704ED00E080E200E010B50028FC
:103CB00004D004460720C043844205D3FFF74EFCDE
:103CC00016210160002010BD08342046FDF7E8FEF3
:103CD000002803D000604460083010BDFFF73EFCB0
:103CE0000C21EEE710B541600061914206D90A4C03
:103CF00020349A4208D2994206D30BE0D11A826945
:103D0000914207D2044C2434011D206800F0A1F92F
:103D1000002010BD012010BDFC00002010B50B4894
:103D20000168FF2213040B430360016812060A4373
:103D3000026000F05FFB06480024046000F0F8F821
:103D4000FEF75AFB00F0A6FE204610BD20ED00E075
:103D5000600300207CB505460020002D06D01C46DF
:103D6000002B03D0002902D1002A00D07CBD0029FD
:103D700001D0002AFAD0069B462001262654009442
:103D8000284600F05EFC20467CBD0000B0B506244D
:103D90000A49204600F05EFF0021204600F022FE86
:103DA0000125284600F082FF2046294600F01AFE31
:103DB0002320000100F07AFFB0BDC04601040020BE
:103DC000F8B505460A4807680024002F0DD0B868EA
:103DD000284207D0FB683A690026284631469847B2
:103DE000002801D13F68F0E7F4432046F8BDC04603
:103DF0001C32002010B5044600F070FB08490A5D33
:103E0000521E0A55095D002905D10121A140054A2C
:103E1000D3688B43D36000F0CFFC002010BDC046B8
:103E20002C32002004030020F8B50C46054600F0B3
:103E300055FB0646E868401C6F683946FFF7ECFD05
:103E4000781AAA68BF1A874200D307462868401824
:103E50002060304600F0B0FC3846F8BDF8B50546A5
:103E60000768466800F03AFB0446787A00280BD0D1
:103E70002846FEF777FF304600F078FB00262846FC
:103E8000314600F0F1FE7E72204600F095FCF8BD50
:103E900010B504280FD111242046FFF713F9074865
:103EA000FF21816201218164054A1268426001603C
:103EB0002046FFF7DBF8002010BDC046046002403A
:103EC000C84E00000A498A6D0020002A00D07047C1
:103ED000084A936A002BFAD1D36A002BF7D1486CB9
:103EE000D168491E884201D00120704702207047E6
:103EF000FC000020D401002009498A6909480068B3
:103F0000C36A0020002B00D07047074B1B68012BB1
:103F1000FAD8002AF8D1086A4969401A7047C046A1
:103F2000D40100205C030020E02E00200120704717
:103F30000B4A13681868203080F30988022080F348
:103F40001488BFF36F8F3FBCAE4608BC04BC62B69A
:103F50001847C046C046C046C046C046C046C046D8
:103F60005C030020F8B5FF2810D0044600F030FDB7
:103F7000074E3068A700C159204600F06BFE0025AF
:103F80002046294600F00AFCB068C551F8BDC0467D
:103F9000F04D00000F2805D10948006802210140BA
:103FA0004808704710381F2805D804490968C140DF
:103FB00001200840704700207047C04600E100E043
:103FC00010E000E0FF2109020140012213029942A2
:103FD00006D000290AD1C0B2054908183C3003E0D8
:103FE000C0B203490818143000787047D0437047B6
:103FF000A8020020F8B50F46044600F06FFA054607
:10400000A068B842064600D33E46801BA0602069E7
:1040100080196168FFF700FD2161284600F0CCFBA4
:104020003046F8BDBCB50D46034603200090012084
:1040300000210A46FFF78EFE0446002D07D0002C13
:1040400005D0002120460A460B46FDF78FFA204690
:10405000BCBDB0B50C68621C07D0024608321346DE
:1040600052681568A542FAD901E003695A684A60A6
:1040700091608B60596008610168491C0160B0BDA6
:1040800080B5FDF789F9FFF707FD074801680122B0
:104090000A430260FDF7C2FBFFF7C2F9FFF71AF906
:1040A000FCF753FB80BDC0461400004010B54468C7
:1040B000816860688968FFF70DFD002800D010BD99
:1040C000206804490422002300F07BFD606800F0B2
:1040D0003BFA10BD5103002070B5084B1C68084A1C
:1040E000944208D01C6800258C2D03D06659565187
:1040F0002D1DF9E71A608000115070BD08ED00E039
:1041000000330020FF221202024001231B029A42C8
:1041100006D0002A09D1C0B2044A10183C3003E08E
:10412000C0B2024A1018143001707047A802002073
:104130000848816F03220A40012A09D1064909680B
:10414000490E0068012252040240500C084070479A
:104150000120704748100040E010004010B50446B0
:1041600000F0BCF90121A140054AD3680B43D3609C
:1041700004490A5D521C0A5500F01EFB002010BDC8
:10418000040300202C32002006484178032900D87F
:1041900080300078FD2804D30348044901600449B5
:1041A000416070472F03004E18110040E3887F09DB
:1041B000E3387F4904B40422002802D1002104BC62
:1041C000704701D50832404212021F320100521ED0
:1041D0004900FCD30805090B1205114304BC7047C4
:1041E00082B0084901910090FFE701980099884248
:1041F00006D2FFE70198011D019103490160F4E730
:1042000002B0704700880020A5A5A5A510B5084AF2
:10421000904201D3074903E07D21C9004143491C75
:10422000841A00D20024084600F0F8F8204610BD99
:1042300037894100D9FEFFFFB0B50446084D6869D3
:104240000019296A884207D100F048FBE86A401C3F
:10425000E86200F003FC641E686900196861B0BD83
:10426000D401002080B507480068C0B2800006492C
:104270000858002804D041688068884700F03AFB5D
:1042800080BDC04604ED00E0000000200F2804D1EE
:10429000074801680222914305E010381F2803D81F
:1042A00001218140014801607047C04680E100E083
:1042B00010E000E00F2805D10748016802220A43F8
:1042C0000260704710381F2803D80121814001483F
:1042D0000160704700E100E010E000E0010C074AD7
:1042E00013464B4380B25043054A4A438018C009E5
:1042F000DE30400AC018400A7047C04612830000F2
:10430000986E0000074908610120C861064A1067DD
:1043100043028B6100230B6003021360086053604B
:104320007047C046001200405410004010B50446CB
:104330000220C043002C09D0002A07D020460830B4
:104340000EC00348214600F0DBF8002010BDC04637
:104350001C320020B0B50546012000210322FEF7E3
:104360008DFF0446002D07D0002C05D000212046EB
:104370000A460B46FDF7FAF82046B0BD70B50C466C
:1043800060C84C35306882690021641E4941D206FC
:1043900007D4002905D00068C1B22846FFF706FA05
:1043A000F0E770BD70B514460D460646B069411978
:1043B000304622462B46FFF795FC002805D0B06911
:1043C0004519316A30468847F0E770BD10B5031FC4
:1043D000012424061C600346083B196001460C3981
:1043E000034B0B60014620390A60403810BDC046BF
:1043F000954A0000064801210170017101720548CB
:10440000002101608160044941600721016070471B
:104410004803002010E000E07FBB000080B50028CA
:104420000BD007494A6A521C4A620021FDF7A4FFDB
:10443000FCF73AFF002800D080BD00F05BFA80BD99
:10444000D4010020084880F3088800BF00BF00F0B6
:104450005DFC002801D0FFF797FB0020FEF78AFEE5
:10446000012000F035FCC0460090002070B50C46DD
:10447000054600F033F86A68AE682969521A964218
:1044800000D316462A685118216000F095F930468D
:1044900070BDF8B51C4616460F46054600F0C4F937
:1044A000F8003146FFF7B8FA401CC10969624006BE
:1044B000800EA862EC62F8BDB0B506480578064CDF
:1044C000002D06D020680168204688476D1E0C34F8
:1044D000F6E7B0BDDA4E0000644E000080B5074834
:1044E0000068C00505D0EFF31080012181F310882A
:1044F00080BD00F0F3F9002080BDC04604ED00E06F
:10450000B0B50C460546FFF7E9FF00212160696858
:10451000616000292A4600D00A4614606C6000F0F1
:104520004BF9B0BDB0B50D460446FFF7D7FF06CD39
:104530000029234600D00B465A60002A00D01446BA
:10454000216000F039F9B0BDE0B507490968C90537
:1045500003D001A9FEF738FC8CBD00210A460B46AA
:10456000FDF704F88CBDC04604ED00E00068816BE7
:10457000054A0A40826305494164016B01225202E7
:10458000914301637047C0462FD8FFFFD02700003A
:1045900030B514004C4325001C0044436419050049
:1045A00010002900FFF72CFB001904000D0021006A
:1045B000280030BDE0B5FFF7E7FD72B601A8FFF7B0
:1045C0000FFE034803490860FFF73CFF8CBDC0465F
:1045D0000000000008ED00E0064841680968002975
:1045E00003D04068C068006801E00020C043024971
:1045F00008627047FC000020D401002010B500F0D4
:1046000051FB0446FCF75AFD002803D001200007A7
:1046100002490860204600F058FB10BD04ED00E0A0
:1046200010B5026C002A0BD0C3689B18C360846865
:10463000A34201D30368C3600846194600F02AFB71
:1046400010BDB0B51C46049D00292B4600D0134672
:104650002B60E863296401212846FDF7BDFD4C204D
:104660002C54B0BDB0B50446044D0120A8622020F2
:10467000FFF700FB2C600248C461B0BD202102405E
:10468000FC00002010B506490A680B680F242403BB
:10469000A3430003101820401818086010BDC0463E
:1046A0001C110040064ACB0700D010600B0700D554
:1046B00090608B0700D59061490700D51062704764
:1046C0001C600240064ACB0700D010600B0700D5E3
:1046D00090608B0700D59061490700D51062704744
:1046E000186002400169436882689A6053604B68B1
:1046F000834200D14A60002202610868401E0860BF
:1047000008687047B0B50C460546002801D104483A
:10471000056800F0E3F86C6500F0A0F9B0BDC04694
:104720005C03002010B50446002801D10448046849
:1047300000F0D4F8646D00F091F9204610BDC04639
:104740005C030020B0B50023994208D00468A56935
:10475000AD0603D4D55C25605B1CF5E71946084619
:10476000B0BD10B504466120205C012804D00028AB
:1047700005D1206BFFF7C8F82046FFF7C5F810BD3C
:10478000044A054B984201D3801800E010430160B1
:104790007047C04600500240150C0000FF2807D0AB
:1047A000044A5268800013588B4201D010180160EF
:1047B0007047C046F04D000080B505490968C9053D
:1047C00002D080F3108880BD00F048F980BDC0465B
:1047D00004ED00E080B5012904D84900034A535A8A
:1047E00083435352FEF794FE80BDC046383200200A
:1047F00080B5012904D84900034A535A0343535250
:10480000FEF786FE80BDC0463832002080B5002805
:1048100001D104480068806D002801D0FFF774F8CA
:1048200080BDC0465C03002081690907FCD4C16AD1
:1048300010229143C162016B014A0A400263704732
:10484000FEFCFFFF10B50C46044909681831FFF75C
:1048500000FC01212046FDF78FFD10BD5C03002008
:1048600010B50446FFF73AFE61680022491EA260B7
:10487000E1602261FFF7A0FF10BD1CB504686479F8
:10488000022C02D1FCF796FA1CBD049C0094FCF7A4
:104890001DF81CBD80B504494868002803D049783C
:1048A000002900D0804780BD0403002010B50428F3
:1048B00006D114461046FCF7EBF92046FEF7BEFF82
:1048C000002010BD04480168002903D001680A6D6A
:1048D000521C0A65006870475C03002072B60448E9
:1048E0000168491C0160BFF34F8FBFF36F8F7047A2
:1048F000600300200120000703490860BFF34F8FC9
:10490000BFF36F8F7047C04604ED00E070B51446EA
:104910000D460646FFF7E2FDB561F461FFF74CFF77
:1049200070BD10B544682068FDF77EFB0020206054
:10493000606800F0A6F910BD70B514460D46064635
:10494000FFF7CCFD7560B460FFF736FF70BD81B036
:10495000C0B5039303AB0093FBF79AFB88BC02BC82
:1049600001B0084710B50446FFF7B8FFA06B4442FA
:10497000444100F073F8204610BDB0B50C46054622
:10498000FFF7ACFDA96CA143A964FFF715FFB0BD0B
:10499000B0B50C460546FFF7A1FDA96C2143A964FB
:1049A000FFF70AFFB0BD42684A6093688B605960A8
:1049B000916008610168491C01607047BCB500281E
:1049C00005D006AC019405682D690094A847BCBDCC
:1049D000FF2803D001218140014801607047C04693
:1049E00074300240FF2803D001221140014A815453
:1049F0007047C0460031024080000249024A0A5016
:104A00007047C04600330020971F000010B50446D1
:104A1000FFF764FD002121606160FFF7CDFE10BD4E
:104A200080B50349142200F035F9002080BDC0464E
:104A3000B44D0000024609681620092903D8002950
:104A400001D011600020704781680348084001D000
:104A50000009401C7047C046F73F0000034801684A
:104A6000491E016000D0704762B6704760030020A5
:104A700080B5002803D00068C069804780BD002051
:104A800080BD10B504460068FFF700FC2068FFF702
:104A9000B3FF10BD81B00020009072B600980028CE
:104AA000FCD001B0704780B54621415C002900D0A0
:104AB00080BDFEF729FF80BD10B500239A4203D0C8
:104AC000CC5CC4545B1CF9E710BD80B50B460321D8
:104AD0004258C11D184600F0DDF880BD0249002291
:104AE000026041607047C046006CDC02FF2802D0C3
:104AF000014901224254704700330240002804D08B
:104B00000021CA4306C00121017070470248C068F5
:104B1000400700D430BF70470403002080B5014631
:104B20000148FFF7FFFC80BD1C32002080B5024920
:104B3000242200F0AFF880BD704D000080B5002841
:104B400003D008380068FEF7DFFE80BD80B502485C
:104B50000068FFF7E7FD80BD5C03002002480068A5
:104B60008546FFF727FD70470000000080B50A4624
:104B700003214158104600F067F880BD80B5002839
:104B800002D00368DB68984780BD10B50023541E2F
:104B90001EC00360436010BD0068016B0122120259
:104BA0009143016370470068016B012212020A43BE
:104BB000026370470068806908210140484248410B
:104BC00070471CB50024E4430094FFF756FE1CBD5B
:104BD0000B4611461A4680B500F016F880BD80B528
:104BE000416980698847FEF7F1FA80BD012901D942
:104BF000162070470161002070470021425C491C6B
:104C0000002AFBD1481E704700239A4202D0C154AB
:104C10005B1CFAE770470000014A81507047C046AC
:104C2000005002400149405C7047C04600360240D7
:104C300001480168816070474C2000400148C0680D
:104C40007047C046040300200A46002180B5FFF7E4
:104C5000DBFF80BD80B50022FDF704FD80BDEFF3D2
:104C6000108148424841704780B50120FFF7C2F8E3
:104C700080BD80B5FEF7FEFF80BD80B5FFF71AFB53
:104C800080BD80B5FFF70FFF80BD80B5FBF700FA50
:104C900080BD000080B5FFF70FFF80BD80B5FDF738
:104CA00029FB80BDEFF3108072B670470138FDD14B
:104CB00070470120C04370471120800670470321D0
:104CC0000170704781600020704780F31088704742
:104CD00000F003F8FEE772B6FEE700BF7047205C05
:104CE00000E0000082B00094014C019410BD00BFB0
:104CF000653F00002046FFE782B00094014C01941C
:104D000010BD00BFB92800008068704701207047BF
:104D1000004003401B000000FF0000008431002021
:104D200020000000A431002020000000000000004E
:104D30000F00000014000000FF000000FF00000052
:104D40001004002000040020020000000100000008
:104D50000200000001000000000000000000000050
:104D60000200000806070000040C0000000C000010
:104D70000000000000000000000000000000000033
:104D8000000000000100000000C20100030000005C
:104D900000000000230A0000312C0000AD4000009C
:104DA000991F0000451C000023490000B34C00007F
:104DB000B94C0000010000000000000000040000E9
:104DC00000000000000000000000000000C2010020
:104DD000FFFFFFFF202400200004000030313233A9
:104DE000343536373839616263646566004F6E006A
:104DF00040020020A82F002010300020FFFFFFFFFE
:104E00001B371B5B3130721B5B25643B25644800FC
:104E10005B202564205D204C45443A202573001B0F
:104E20005B33313B346D4F66661B5B306D0048650C
:104E30006C6C6F2053657269616C21001B5B3332AF
:104E40003B316D4F6E1B5B306D000008A74E0000BC
:104E5000B64E0000AC4E0000000000000000000054
:104E600000000000944D000010320020C84D0000EA
:104E700000000000B511000000000000202C002000
:104E8000104D0000546D7220537663004C45443A37
:104E900020257300286E756C6C29001B5B324B1B40
:104EA000450000060286821B5B314B001B5B324BC8
:104EB0000049444C45001B5B304B000000020202DD
:104EC0004006080080060800000400200020406022
:0F4ED0004F666600090000007800010300190119
:104EE00000D500000F910411224F0902003F2A2033
:104EF00004E56027F080003104750104003D2000C6
:104F0000750004002205F52A7F60FD4031AF071BC4
:104F1000631B5B324ADF1B5B3130720040313B2345
:104F2000314801C901A03548AA0000FFF000000087
:104F300071250000CB4A00006D4B0000020000000C
:104F4000100000000200000010000000020000003D
:104F5000202E0000E04E0000000000203C4F00002A
:104F600000040020444F0000100400204C4F0000BB
:044F700020040020F9
:020000044E02AA
:10000000FFFFFFFF0000000000000000FFFFFFFFF8
:10001000FFFFFFFFFFFFFFFFAAAAAAAA0000000040
:10002000FFFFFFFFFFFFFFFF00000000FFFFFFFFDC
:1000300000000000000000F00000000000000000D0
:1000400000000000000000000000000000000000B0
:1000500000000000000000000000000000000000A0
:100060000000000000000000000000000000000090
:100070000000000000000000000000000000000080
:10074000000000000000000000000000B7DF14B748
:100750000000000000000000000000000000000099
:100760000000000000000000000000000000000089
:100770000000000000000000000000000000000079
:100780000000000000000000000000000000000069
:100790000000000000000000000000000000000059
:1007A0000000000000000000000000000000000049
:1007B0000000000000000000000000000000000039
:1007C0000000000000000000000000000000000029
:1007D0005AA500000101020305080D156DD7E43686
:1007E000EBF431DF95AE15EE03BA8EE4C4C63FD804
:1007F000453F675E74D7C2012C9058E5A2947252AF
:0400000300004B5D51
:00000001FF
